:1000000080050020011E0000FD1D0000FD1D0000F8
:1000100000000000000000000000000000000000E0
:10002000000000000000000000000000FD1D0000B6
:100030000000000000000000FD1D0000FD1D00008C
:10004000FD1D0000FD1D0000FD1D0000FD1D000048
:10005000CD0D0000FD1D0000FD1D00000000000092
:10006000FD1D00009D0D0000AD0D0000BD0D000048
:10007000010A00007D0D00008D0D0000C905000083
:10008000FD1D0000FD1D0000FD1D000010B5064C0B
:100090002378002B07D1054B002B02D0044800E049
:1000A00000BF0123237010BD1000002000000000DD
:1000B00060220000084B10B5002B03D00749084808
:1000C00000E000BF07480368002B00D110BD064BBD
:1000D000002BFBD09847F9E7000000001400002037
:1000E00060220000602200000000000070B50020C7
:1000F000084B98470500084CFA218900A047074B98
:10010000186007492800A047064B18600522064BD7
:100110001A6070BD491B0000251F00000000002070
:1001200040420F000400002010E000E030B5084B12
:100130001C68084A002580214902013807D3002C99
:10014000FBD05460956013680B42FCD0F5E730BDDE
:100150000000002010E000E010B500220023027033
:10016000427000214280017103760262C2618260A6
:1001700003738024A400C481037443748374C37420
:100180000375D73CFF3C035543758375063C035507
:10019000C2840285C1752B23C1540133C15410BDE3
:1001A000F0B5D6464F464646C0B596B00700160095
:1001B0000160C64A106A80235B00034313620B7818
:1001C0000520DB0705D516B01CBC90469946A24613
:1001D000F0BD0B7817309B07F5D473783B71002B7B
:1001E00004D1BB4A136C04210B4313640023BB608E
:1001F000FB603B61BB76FB763B833B77B54B1F6077
:100200002A23F35C002B05D1337D002B02D101336F
:100210007B7701E000237B773B68984633786A461A
:10022000137069461320AC4B98471320AB4B98478B
:100230002C23F25C002A54D0013BF55C337BEB1895
:10024000DBB2D118C9B28B4221D25219D3B299462E
:10025000A34B9A4603E00135EDB24D4517D00F246C
:100260002C40337BE41850229E4902A8D047092C29
:10027000F1D8A40002ABE05801A900234B70CB7069
:100280008B7001330B70C0B2974B9847E3E7F4894A
:100290005022944902A8924B9847092C13D9737D98
:1002A0009B00DBB242461370B37DDB0172781343CF
:1002B000DBB2424653703379342B00D97BE19B008B
:1002C0008A4AD3589F46A40002ABE05801A90023F4
:1002D0004B70CB708B7001330B70C0B2824B984760
:1002E000DDE7347B50227F4902A87D4B9847092CDB
:1002F00015D9F48950227B4902A8794B9847092CDB
:10030000CDD8A40002ABE05801A900234B70CB70FC
:100310008B7001330B70C0B2734B9847BFE7A400DA
:1003200002ABE05801A900234B70CB708B700133F6
:100330000B70C0B26C4B9847DBE7042310240221FA
:100340001AE0717C337C102416E00623102401216E
:1003500012E00823102400210EE0002330240021A5
:100360000AE000232024002106E0002300240021CD
:1003700002E0022310240121090170220A401343E4
:1003800042469370F37D17203F2B00D91BE7D370B3
:100390003A68537E5BB2002BFBDBF37C728813431D
:1003A0002422B25CD2001343327D92001343B27C0C
:1003B00052001343234342469380337E002B20D0C8
:1003C000102C00D1D9E000D898E0202C00D1B6E064
:1003D000302C16D1F27C002A0AD0F2698032172024
:1003E000FF2A00D9EFE6326A8032FF2A00D9EAE616
:1003F0001720F269FF2A00DDE5E6326AFF2A00DDF8
:10040000E1E639684A7E52B2002AFBDB42461372AB
:100410003A68537E5BB2002BFBDBB38B424693837F
:100420003A68537E5BB2002BFBDB338C424613846D
:100430002C23F35C002B05D0013BDBB217200F2BE4
:1004400000D9C0E62B22B15C17200F2900D9BAE6EB
:100450003868427E52B2002AFBDBF289307B0243CD
:10046000B068024309050A431B0413434246136163
:100470002A23F35C13750F2393751533F35C002B5C
:1004800012D0F38C1A4A1720934200D99BE64246B9
:100490009384328D80231B01D31815499BB28B4264
:1004A00000D990E64346DA84124B1B685B01E022D8
:1004B000D2001340104A516849011268D20E0A4313
:1004C000D2B213434246138500207CE6000400406C
:1004D0000008004060000020611C0000D51B0000E7
:1004E000852000006C210000591D000098200000AC
:1004F000FF0F00002460800020608000002C00D0EE
:100500007FE7F27C002A0FD0F269802109018C4636
:1005100062442A4917208A4200D954E6326A62446A
:1005200026498A4200D94EE6244A1720F1699142B1
:1005300000DD48E6316A914200DD44E661E7F27C85
:10054000002A0FD0F269802189008C4662441C4940
:1005500017208A4200D936E6326A624418498A4234
:1005600000D930E6164A1720F169914200DD2AE6EB
:10057000316A914200DD26E643E7F27C002A0FD083
:10058000F269802109028C4662440E4917208A4292
:1005900000D918E6326A62440A498A4200D912E652
:1005A000084A1720F169914200DD0CE6316A914258
:1005B00000DD08E625E7172005E6C046FF0F00002E
:1005C000FF030000FFFF000070B52E4B1C6823687E
:1005D0001D7EEDB2EA0705D5E27ED20702D5A27EE6
:1005E000D20716D46B0708D5042322681376E37E5E
:1005F0009B0702D5A37E9B073CD4AB0708D50223FB
:1006000022681376E37E5B0702D5A37E5B0735D4B1
:1006100070BD01221A762268537E5BB2002BFBDB91
:1006200061698B1C6361538B9BB20B80238B013BF5
:100630009BB22383002B11D0637F002BD2D0226882
:10064000537E5BB2002BFBDB137B02210B43137346
:100650002268537E5BB2002BFBDBC3E7237F052BB5
:10066000C0D1002323770133226893752000A3684B
:100670009847B7E72000E3689847BEE72369200062
:100680009847C5E760000020044A137802210B4315
:10069000137053785BB2002BFBDB704700180040EF
:1006A00000B583B0124A936940210B43936101A9BD
:1006B00000230B7005200F4B984705200E4B9847E1
:1006C0000E4A137801210B43137053785BB2002B51
:1006D000FBDB0B4B19004031002204C39942FCD1D3
:1006E0001022084B1A60084B984703B000BDC04663
:1006F00000040040611C0000D51B000000180040F1
:100700006400002000E100E08906000070B504AC40
:10071000267805AC25780B4CC0432070C943617026
:10072000D243A270DB43E370F6432671ED4365715B
:10073000054B9847054B9847054B98470122054BB9
:100740001A7070BD680100202117000065140000B8
:10075000C51400003D000020F8B500240025064F18
:10076000064EE05DB047E300984005430134042C99
:10077000F7D12800F8BDC046BC210000F5070000F5
:1007800010B58CB06846164B984701236A465370E3
:10079000002353800E331373F333FF33D381D13BE4
:1007A000FF3B13710F4C10492000104B98472268F3
:1007B000537E5BB2002BFBDB802109020C4B1960DE
:1007C0000F2393751376137802210B431370054B97
:1007D0001A68537E5BB2002BFBDB0CB010BDC04629
:1007E00059010000A400002000200042A1010000E7
:1007F00000E100E030B583B000226B46DA802C4B7C
:1008000019684B7E5BB2002BFBDB0B691F22934305
:10081000184308614B7E5BB2002BFBDB4B7E5BB267
:10082000002BFBDB0B7B022213430B734B7E5BB273
:10083000002BFBDB01200425022401E010420AD139
:100840000B7EDBB202001A401D4200D022431C4244
:10085000F4D02A43F2E70A7ED2B2012313405007B4
:1008600001D502200343920701D504221343DB077D
:1008700004D46B46D888C0B203B030BD4B7E5BB2A7
:10088000002BFBDB4A8B6B46DA8001230B760A7E5A
:10089000D2B21340500701D502200343920701D57D
:1008A000042213435B07E4D502230B76E1E7C0463D
:1008B000A400002010B5014B984710BD810700002F
:1008C000054B1A68022193681942FCD11368022172
:1008D0000B4313607047C046C4000020F0B583B0DE
:1008E00000250024314F324EE8B2019400940300F9
:1008F00022002100B8471420B047013580235B0057
:100900009D42F1D1FF250024284F294EE8B20194E1
:100910000094030022002100B8471420B047013D95
:10092000F4D200250024214F214EE9B20194009118
:10093000230022002000B8471420B047013580234F
:100940005B009D42F1D1FF250024184F184EE9B2FB
:1009500001940091230022002000B8471420B047E2
:10096000013DF4D200250024104F114EEAB201924D
:100970000094230021002000B8471420B04701351F
:1009800080235B009D42F1D1FF250024074F084ED4
:10099000EAB201920094230021002000B8471420FD
:1009A000B047013DF4D203B0F0BDC0460D070000D2
:1009B0002D010000F0B5C64600B580000E4BC758AB
:1009C0003B68DE6ABB6B7A6B13401E4000240B4B06
:1009D000984602E00434302C0AD04346E5583542AC
:1009E000F8D03B195B68380098473B68DD62F1E757
:1009F00004BC9046F0BDC04604010020C0210000A8
:100A000010B50020014B984710BDC046B509000045
:100A1000064B984208D0064A0023904201D01800A5
:100A200070470133DBB2FAE70023FBE7001800420E
:100A3000001C0042F0B585B004000D00160008004F
:100A4000824B9847070003AB12221A705A7002AB10
:100A50002E321A8040325A800023A360E360236163
:100A60006361237663768200794BD4502560B37836
:100A7000082B06D023712B880520DB0705D505B090
:100A8000F0BD1720FA07FAD4F4E7EB7B1730DB064A
:100A9000F5D42B889B07F2D4337C002B00D07AE06E
:100AA000337F002B00D082E06A49086A7A0002ABEB
:100AB000D35A03430B62B378082B00D187E0337815
:100AC0006A46137003ABDF5D69463800624B984796
:100AD0003800624B98473189B3880B43B178B279BB
:100AE000114319437378002B02D080231B01194353
:100AF0002268D37B5BB2002BFBDB2980717B4B1E12
:100B000099418900B37B002B01D00123194322684E
:100B1000D37B5BB2002BFBDBFF232B71002905D0BD
:100B20002268D37B5BB2002BFBDB6971B17AF37A6D
:100B3000002B01D010231943337B002B01D020233D
:100B400019432268D37B5BB2002BFBDBA9712268BF
:100B5000D37B5BB2002BFBDB2379042B3FD0082B2C
:100B60005ED01720002B00D089E7D37B5BB2002B2F
:100B7000FBDB338D2B822268D37B5BB2002BFBDB4C
:100B8000738D2B832268D37B5BB2002BFBDBB38D91
:100B90006B83002073E701A901238B700022CA70C8
:100BA000327E0A704B70307D2D4B984778E701A953
:100BB00001238B700022CA702432B21812780A7096
:100BC0004B701F33F3181878254B98476CE7086A69
:100BD0007A1C520002ABD35A03430B626FE7D37BFC
:100BE0005BB2002BFBDB2823F35C2B742268D37BE6
:100BF0005BB2002BFBDB2923F35C2B752268D37BD4
:100C00005BB2002BFBDB2A23F35C2B762268D37BC1
:100C10005BB2002BFBDB2B23F35C6B7600202EE713
:100C2000D37B5BB2002BFBDBB36A2B612268D37BE7
:100C30005BB2002BFBDBF36AAB612268D37B5BB258
:100C4000002BFBDB336BEB61002018E7110A00007F
:100C50000801002000040040611C0000D51B0000BA
:100C6000591D00000268D37B5BB2002BFBDB0379CC
:100C7000042B05D0082B0BD01720002B04D0704775
:100C8000C9B211740020FAE789B211820020F6E798
:100C900011610020F3E710B50468E37B5BB2002B21
:100CA000FBDB0379042B05D0082B14D01720002B75
:100CB00008D010BD17200129FBD8D2B261180A76DE
:100CC0000020F6E717200129F3D892B20C31490031
:100CD0000A530020EDE717200129EAD806318900E0
:100CE0000A510020E5E7931C9B001950022A09D005
:100CF000032A0CD0012393401A00037E134303768A
:100D000000207047037E102213430376F8E7037E2A
:100D1000202213430376F3E770B58000164BC458C6
:100D200023689D7B227E637E13401D40EB0706D423
:100D3000AB070BD4EB0610D4AB0615D470BD200066
:100D4000A3689847012322689373F1E72000E368C2
:100D50009847022322689373ECE7200023699847A1
:100D6000102322689373E7E720006369984723689C
:100D700020229A73E2E7C0460801002010B5002047
:100D8000014B984710BDC046190D000010B5012059
:100D9000014B984710BDC046190D000010B5024B1D
:100DA0001B680020984710BD2C00002010B5024B96
:100DB0005B680120984710BD2C00002010B5024B45
:100DC0009B680220984710BD2C00002070B50022BF
:100DD000104B1A70002310491F25104E0D4C0AE0CD
:100DE0000D4908E023780133DBB223700F2B10D8B4
:100DF00000211F2BF4D928001840012282400869E5
:100E00001042EFD00A619B009B59002BEAD0984713
:100E1000E8E770BD100100200018004064000020C9
:100E200000B583B001AB80221A700A785A704A78F4
:100E30009A708A78DA701900014B984703B000BDA8
:100E4000591D0000F0B5DE4657464646C0B582B093
:100E500001904F4B1B78002B00D091E04D490B784F
:100E60005A1CD2B20A704C49C95CC8090023002838
:100E700004D14B09DB014948844663441F200840E4
:100E8000012181405961464B1E78464B1B78013B3E
:100E900098469E426EDA4448815D444B1970013693
:100EA000F6B23F4B1E703300855D41480570A94284
:100EB00035D1B04552DB100037498B461F218A4699
:100EC0000127394CB61A0FE0554629403D008D40A8
:100ED0004561E15C9319DBB20093E05C844681429A
:100EE00012D1100098452CDB421CD2B25946095C45
:100EF000C809844600206546002DE5D14809C00197
:100F0000264DAC466044DFE70500284B1970244BA2
:100F1000684600781870264B1D701E4B1A70FF2D06
:100F20001ED0019C2000234B9847214B1A780021AA
:100F30002000214B984702B01CBC90469A46A3461D
:100F4000F0BD6546194B1970154B6846007818704E
:100F5000174B19700F4B1A706146E0E70D00DEE782
:100F6000019C2000134B9847002200212000124BC7
:100F70009847E0E70022002101980F4B9847DAE7F5
:100F80000022034B1A70002101980B4B9847D2E7BF
:100F900009000020380100203C01002000440041ED
:100FA0003701002008000020340100203900002013
:100FB00038000020650C0000970C000010B58EB0C2
:100FC00001AA002300211370937113810020507037
:100FD0009172D17211739173517311745361936152
:100FE000117713625362138553859385C023DB0009
:100FF000938004239370FF212533D154074C084973
:101000002000084B98472268D37B5BB2002BFBDBA8
:10101000138802210B4313800EB010BD1401002071
:10102000001C0042350A000010B5012202490348A5
:10103000034B984710BDC0460003008000440041A8
:10104000891D0000034B044A9A61802292005A6174
:101050007047C046004400410003008030B583B0B3
:1010600001AC012363700022A270237021001F20B5
:10107000064DA84721000820A84721000920A847BD
:10108000034B9847034B984703B030BD210E000037
:101090002910000045100000F8B5CE46474680B53F
:1010A000134C2068134B99469847134B98461B5C8A
:1010B0001F26334001252A009A40104F3A60637E74
:1010C00001221343637623685D731800C8474346C3
:1010D0001B5C1E40B5403D60637E10221343637667
:1010E000236810225A730CBC90469946F8BDC0463E
:1010F00014010020110A0000F021000000E100E0CE
:10110000034B1F221A70173A5A7001329A707047B7
:1011100030010020034B0A221A7000225A7001325B
:101120009A70704740010020F0B500220023164D50
:101130002F00164E04E00133DBB21A00012B0BDC4A
:10114000A85C511C6C5CA042F5D9BC547854B05CCE
:10115000745CB4547054EEE7002200230A4D2F0053
:101160000A4E03E00133DBB21A1E0BDCA85C511CF3
:101170006C5CA042F6D9BC547854B05C745CB45436
:101180007054EFE7F0BDC046400100203001002060
:10119000F0B500220D4B1A70002300200C4D0D4FAE
:1011A0000D4E0E4C05E0F954E15CF1540133032B74
:1011B00006D0E95CFF29F6D00132D2B20120F2E775
:1011C000002800D1F0BD014B1A70FBE70800002099
:1011D00040010020340100203C01002030010020AB
:1011E00070B504001A4B98471A4B1B78002B10D18E
:1011F0000023194A1370194A1370194B1A78FF2AE1
:1012000020D1184B10211A6811735A7E8A435A76DE
:1012100070BD144D2868144B9847144B1B5C1F225B
:101220001A4001239340124A13606B7E102213432D
:101230006B762B6810225A730E4B98470022054B91
:101240001A70D5E7002120000B4B9847E0E7C04615
:10125000451000003A00002037010020380100202E
:101260003401002014010020110A0000F0210000C8
:1012700000E100E091110000970C000010B5044B54
:101280009847044B9847044B9847044B984710BD28
:10129000011100001511000029110000911100003A
:1012A00070B5054D002205492800054CA0470222D3
:1012B00004492800A04770BD14010020E11100007E
:1012C000E70C0000450E000010B5044B9847044B96
:1012D0009847044B9847044B984710BDBD0F00003A
:1012E0005D1000007D120000A1120000F0B5DE4686
:1012F00057464646C0B582B001904F4B1B78002B35
:1013000000D091E04D490B785A1CD2B20A704C497A
:10131000C95CC8090023002804D14B09DB014948F6
:10132000844663441F200840012181409961464B57
:101330001E78464B1B78013B98469E426EDA444825
:10134000815D444B19700136F6B23F4B1E7033007D
:10135000855D41480570A94235D1B04552DB10008A
:1013600037498B461F218A460127394CB61A0FE0B0
:10137000554629403D008D408561E15C9319DBB203
:101380000093E05C8446814212D1100098452CDB2A
:10139000421CD2B25946095CC80984460020654601
:1013A000002DE5D14809C001264DAC466044DFE779
:1013B0000500284B1970244B684600781870264B9E
:1013C0001D701E4B1A70FF2D1ED0019C2000234B58
:1013D0009847214B1A7800212000214B984702B0F2
:1013E0001CBC90469A46A346F0BD6546194B197041
:1013F000154B684600781870174B19700F4B1A7010
:101400006146E0E70D00DEE7019C2000134B9847A2
:10141000002200212000124B9847E0E70022002123
:1014200001980F4B9847DAE70022034B1A7000210E
:1014300001980B4B9847D2E70B0000207601002063
:1014400060010020004400417E0100200A000020CD
:10145000700100203C0000203B000020650C0000D3
:10146000970C0000F0B5CE4600B505239946134F02
:101470003E00134D17E00133DBB21A0063450BDA6F
:10148000B85C511C7C5CA042F5D9B4547054A85C83
:101490006C5CAC546854EEE701235B429C46E1442B
:1014A0004B46002B06D0CC4600220023494600299B
:1014B000E6DCF1E704BC9146F0BDC04668010020BF
:1014C00078010020F0B500220D4B1A700023002691
:1014D0000C4D0D4F0D4C0E4805E0F954C15CE15424
:1014E0000133062B06D0E95CFF29F6D00132D2B2D7
:1014F0000126F2E7002E00D1F0BD014B1A70FBE788
:101500000A00002068010020700100206001002016
:101510007801002070B504001A4A1B4B5A611B4B1E
:101520001B78002B10D10023194A1370194A13702D
:10153000194B1A78FF2A20D1184B10211A68117301
:101540005A7E8A435A7670BD144D2868144B9847CA
:10155000144B1B5C1F221A4001239340124A136054
:101560006B7E102213436B762B6810225A730F4B3D
:1015700098470022054B1A70D5E7002120000C4B3C
:101580009847E0E70080C308004400413D00002088
:101590007E0100207601002070010020440100201F
:1015A000110A0000F421000000E100E0C514000071
:1015B000970C000010B58EB001AA00230021137013
:1015C00093711381002050709172D17211739173D5
:1015D00051731174536193611177136253621385D0
:1015E00053859385C023DB00938004239370FF21F0
:1015F0002533D154074C08492000084B98472268EE
:10160000D37B5BB2002BFBDB138802210B431380DF
:101610000EB010BD4401002000180042350A000041
:1016200010B5012202490348034B984710BDC0463C
:101630000080C30800440041891D000030B583B01C
:1016400001AC012363700022A270237021000F20DF
:101650000B4DA84721001020A84721001120A847C2
:1016600021001620A84721001720A84721001B2091
:10167000A847044B9847044A044B5A6103B030BD55
:10168000210E0000211600000080C3080044004124
:1016900070B5054D002205492800054CA0470222DF
:1016A00004492800A04770BD440100201515000022
:1016B000E70C0000ED120000F8B5CE46474680B5B5
:1016C000134C2068134B99469847134B98461B5C64
:1016D0001F26334001252A009A40104F3A60637E4E
:1016E00001221343637623685D731800C84743469D
:1016F0001B5C1E40B5403D60637E10221343637641
:10170000236810225A730CBC90469946F8BDC04617
:1017100044010020110A0000F421000000E100E073
:10172000064B0F221A7001325A7001329A7005323C
:10173000DA7001321A7104325A7170477801002050
:10174000064BFF221A705A70F53A9A701E32DA7000
:101750000A321A710A325A717047C0466801002075
:1017600010B5044B9847044B9847044B9847044BDB
:10177000984710BD211700004117000065140000B4
:10178000C514000010B5044B9847044B9847044B10
:101790009847044B984710BDB51500003D16000052
:1017A0006117000091160000704700000C4B1B6889
:1017B000002B06D1EFF31083002B07D00022094B3A
:1017C0001A70074A136801331360704772B6BFF38B
:1017D0005F8F0022044B1A700132024B1A70F0E73F
:1017E00040000020440000200C000020084B1A6834
:1017F000013A1A601B68002B09D1064B1B78002B9D
:1018000005D00122044B1A70BFF35F8F62B6704798
:1018100040000020440000200C00002010B50828E3
:1018200003D880001B4B1B589F46002030E01A4B0A
:1018300018692DE0194B1B6A9B059B0F1848D8406F
:1018400026E0154B586923E0134B1B6800209B07CB
:101850001ED512491022CB681A42FCD00E4B1B68D1
:101860005B0701D40F4813E000200F4B98470A4B49
:101870009B681B041B0C58430AE05023074AD35CA7
:1018800000205B0704D5044BD86801E080200002EB
:1018900010BDC046F82100004800002000080040AC
:1018A00000127A00006CDC027D1C000070B50C494F
:1018B0000B6A047885784078012210408001402628
:1018C000B34303432A40D2018020834313430322BE
:1018D000224012020348034013430B6270BDC0460E
:1018E00000080040FFFCFFFF082803D88000254BBC
:1018F0001B589F46172044E0234A136A02210B43DA
:10190000136200203DE0204A936902210B4393615A
:10191000002036E01C4A138A02210B431382002068
:101920002FE0194A938A02210B439382002028E07A
:1019300016490B68022213430B60134B9A8419005B
:101940000E32CB681A42FCD0104A91680E4BD96215
:1019500052689A6200229A8419001032CB681A42A7
:10196000FCD00A4B1B689BB2074A9384002008E016
:10197000054944228B5C022003438B54002000E085
:10198000002070471C220000000800404800002092
:1019900030B585B0C222D2001A4B9A601A4A5368F9
:1019A0001E218B43536001236A4613700024174D98
:1019B000E0B26946A8470134182CF9D103A80024E5
:1019C0004470012585700470114B98470620114B17
:1019D0009847114B9847114B1C725C729C72DC72D9
:1019E00001956B465C7006236A461370147254723C
:1019F000694600200A4B984700200A4B984705B0DB
:101A000030BDC0460008004000400041611C00009D
:101A1000AD180000E9180000291A00000004004079
:101A20004D1A0000051B0000064A936908210B436C
:101A300093610122044B1A7019000B781342FCD1F8
:101A40007047C04600040040000C004070B506001E
:101A500004000D782D0205434B78002B02D0802323
:101A6000DB021D434B7A002B02D080231B031D4356
:101A70004868012810D9431E184234D1022830D9B1
:101A80000223002201325B009842FBD8120232434B
:101A9000140080235B031D430B7A002B02D08023AC
:101AA0009B031D43134A53785BB2002BFBDB124BA5
:101AB0009847124B1E700F4A53785BB2002BFBDB2A
:101AC0000C4B9C601A0053785BB2002BFBDB094A7D
:101AD0005368802149020B401D435560084B9847CD
:101AE00070BD0022D2E70402344380239B021D43D1
:101AF000D2E7C046000C0040AD170000080C0040C3
:101B0000ED17000010B504000B4A53785BB2002BB0
:101B1000FBDB0A4B98470A4B1C70074A53785BB2B1
:101B2000002BFBDB044A516880235B020B435360AC
:101B3000044B984710BDC046000C0040AD17000094
:101B4000040C0040ED17000070B504001A4A5378E9
:101B50005BB2002BFBDB194B9847194B1C70164AE4
:101B600053785BB2002BFBDB134E7068C004C00ED1
:101B7000144B98470500124B1C707668F602F60F5E
:101B8000114B1C700C4A53785BB2002BFBDB0A4BE9
:101B90009C682402240C0D4B9847002E07D1012C81
:101BA00007D9210028000A4B9847050001E00134BD
:101BB000E540280070BDC046000C0040AD17000095
:101BC000040C00401D180000080C0040ED17000038
:101BD000251F000010B50400064B9847064B1C70EB
:101BE000064A53888021C9010B435380044B984710
:101BF00010BDC046AD170000020C0040000C0040B4
:101C0000ED17000010B504000F4B98470F4B1C70E8
:101C10000F4A53881B05180F53880E490B405380F9
:101C200053880D490B40538011008022D2014B880C
:101C30001342FCD106494A88030206480240134376
:101C40004B80064B984710BDAD170000020C0040BA
:101C5000000C0040FFF0FFFFFFBFFFFFED1700008B
:101C600010B50C7824020443024B9847A4B2024BEF
:101C70005C8010BD051C0000000C004010B5040085
:101C8000064B9847064B1C70064B5C882405240FB6
:101C9000054B98472000054B984710BDAD17000035
:101CA000020C0040000C0040ED170000491B000032
:101CB00030B5D378002B35D11378802B29D01B0673
:101CC00080246402234354780225AC4306D19478DF
:101CD000002C20D18024A402234341605478013C8D
:101CE000012C1CD90D042D0CA024E4052C431C430D
:101CF00084620D0CD02424062C431C438462D478C7
:101D0000002C22D15B031CD59378012B1ED041619E
:101D100017E00023D7E7C024E4022343DDE70D4C9E
:101D20002340DFE741600C04240CA023DB052343A0
:101D300083620C0CD0231B0623438362D378002BD1
:101D400003D15378013B012B02D930BD8161F8E703
:101D50008160FAE7FFFFFBFF10B50A00C10900230D
:101D6000002904D14309DB0105498C4663441F2443
:101D70002040012181401800024B984710BDC04609
:101D800000440041B11C0000F0B5C64600B5002378
:101D900001264024A046A44609E0C51840352C7809
:101DA00067463C43E4B22C700133202B0CD00C006E
:101DB000DC402642F8D0012AEFD0C4184034257800
:101DC0004746BD432570EFE704BC9046F0BD704721
:101DD00010B5054B9847054B9847054B9847054B61
:101DE0009847054B984710BD91190000A9170000AE
:101DF000CF1D0000A1060000CF1D0000FEE700007F
:101E000010B5264A264B9A4211D01A00254B9A4209
:101E10000DD2254A03339B1A9B0801339B000022F5
:101E20001F481E498C58845004329A42FAD11F4AE6
:101E30001F4B9A420AD2D3431D495B1803218B439F
:101E400004339B18002102C29342FCD1194AFF219E
:101E5000194B8B439360FD3990235B00174AD15097
:101E6000174B9A7B2E318A4320210A439A739A7B1F
:101E70000C218A4308210A439A739A7B03218A43DF
:101E800002210A439A730F4A536880210B4353601F
:101E90000D4B98470D4B9847FEE7C0466022000067
:101EA000000000201000002004000020100000208E
:101EB0008001002000ED00E0000000000070004103
:101EC00000480041004000413D200000D11E0000BC
:101ED00070B50A4B98470A4B98470A4B98470A4BEC
:101EE00098470A4B98470A4B98470A4B98470A4B22
:101EF00098470A4D0A4CA847A047FCE7D11D0000AF
:101F0000ED000000C912000085170000B5080000B0
:101F1000C1080000B9160000991000005907000020
:101F2000DD080000002243088B4274D303098B4272
:101F30005FD3030A8B4244D3030B8B4228D3030C99
:101F40008B420DD3FF22090212BA030C8B4202D33B
:101F50001212090265D0030B8B4219D300E0090A63
:101F6000C30B8B4201D3CB03C01A5241830B8B426C
:101F700001D38B03C01A5241430B8B4201D34B0355
:101F8000C01A5241030B8B4201D30B03C01A5241BA
:101F9000C30A8B4201D3CB02C01A5241830A8B423F
:101FA00001D38B02C01A5241430A8B4201D34B0228
:101FB000C01A5241030A8B4201D30B02C01A52418C
:101FC000CDD2C3098B4201D3CB01C01A5241830940
:101FD0008B4201D38B01C01A524143098B4201D37A
:101FE0004B01C01A524103098B4201D30B01C01AA5
:101FF0005241C3088B4201D3CB00C01A524183081F
:102000008B4201D38B00C01A524143088B4201D34B
:102010004B00C01A5241411A00D2014652411046AB
:102020007047FFE701B5002000F006F802BDC0468A
:102030000029F7D076E770477047C04670B5002694
:102040000C4D0D4C641BA410A64209D1002600F0D3
:10205000F7F80A4D0A4C641BA410A64205D170BDC6
:10206000B300EB5898470136EEE7B300EB589847BA
:102070000136F2E74C2200004C2200004C22000006
:1020800050220000002310B59A4200D110BDCC5C54
:10209000C4540133F8E700006A030000B6050000ED
:1020A000B6050000B6050000B6050000B605000044
:1020B000B6050000B6050000B6050000B605000034
:1020C000B6050000B6050000B6050000B605000024
:1020D000B6050000B605000052030000B60500007A
:1020E000B6050000B6050000B6050000B605000004
:1020F000B6050000B6050000B6050000B6050000F4
:10210000B6050000B6050000B6050000B6050000E3
:10211000B6050000B605000062030000B605000029
:10212000B6050000B6050000B6050000B6050000C3
:10213000B6050000B6050000B6050000B6050000B3
:10214000B6050000B6050000B6050000B6050000A3
:10215000B6050000B60500005A0300007203000037
:102160003A0300004A03000042030000020000009E
:10217000030000000400000005000000060000004D
:10218000070000000E0000000F0000000A00000021
:102190000B000000FFFF0000FFFF0000FFFF00003A
:1021A000FFFF0000FFFF0000FFFF0000FFFF000037
:1021B000FFFF0000FFFF0000FFFF0000060908000E
:1021C0000100000002000000040000000800000000
:1021D000001000000020000000400000008000000F
:1021E00000000100000002000000040000000800E0
:1021F0000D0E00000D0E00002E1800002A18000021
:102200002A1800008C1800008C18000042180000EA
:1022100034180000481800007A1800001419000053
:10222000F4180000F41800008019000006190000DE
:1022300022190000F8180000301900007019000081
:10224000F8B5C046F8BC08BC9E467047B500000013
:10225000F8B5C046F8BC08BC9E4670478D0000002B
:10226000401F0000080000000301060101000000FB
:0400000300001E01DA
:00000001FF
