:1000000078070020AD360000A9360000A9360000B0
:1000100000000000000000000000000000000000E0
:10002000000000000000000000000000A9360000F1
:100030000000000000000000A9360000A936000002
:10004000A9360000A9360000A9360000A936000034
:1000500005260000A9360000A936000000000000B7
:10006000A9360000D5250000E5250000F525000093
:10007000D11B00004D1F00005D1F00007D0C000023
:10008000A9360000A9360000A936000010B5064CBC
:100090002378002B07D1054B002B02D0044800E049
:1000A00000BF0123237010BD740000200000000079
:1000B000183F0000084B10B5002B03D00749084833
:1000C00000E000BF07480368002B00D110BD064BBD
:1000D000002BFBD09847F9E70000000078000020D3
:1000E000183F0000183F00000000000030B583B04A
:1000F0006B46991D00230B800B48012404700B4BA9
:100100001B681B8DDB05DB0D0B80094A1578094B3D
:100110005B190988C9B2197013780133DBB2137007
:10012000047003B030BDC046F20000200001002082
:10013000F10000207002002030B591B08023DB0573
:10014000009300230193FF2269460A8100228B72EB
:10015000CB72012124206C462154013021542531D9
:100160006354013163540A9305316354013163547C
:1001700005932382E3762276227762761323A37691
:100180006277E1235B020893C4239B03039301235B
:100190005B420C930D93104B0E93104B0F93104D2D
:1001A000104C6A4610492800A0470028F9D10C4D90
:1001B0002C6820000D4B98471F2318401E3B83409E
:1001C0000B4A13602A68D369002BFCD123680222F2
:1001D0001343236011B030BD020018000200190063
:1001E000000100206D1F0000000C0042B52500003A
:1001F00000E100E010B5012202490348034B984793
:1002000010BDC046ED00000000010020ED230000FD
:1002100010B505483122835C02210B438354303AE8
:100220000249034B984710BD000100203401002013
:100230000524000010B5024B9847024B984710BDAB
:1002400039010000F501000070B50F4D0F4C104E44
:100250002B7822789B1A834203DA3378002BF7D06D
:1002600070BD0028FCD00123084C0A4D2278D2B280
:10027000AA5CCA5422780132D2B222700133DBB2B6
:100280009842F3D2ECE7C046F1000020F5000020D0
:10029000F30000207002002030B58FB0D04B1B78E7
:1002A000D04A1278DBB2934200D11DE2CD490B78DF
:1002B000DBB2CD4AD35CDBB209AA13700A780132F3
:1002C000D2B20A704C3BDAB22A2A00D926E2930055
:1002D000C64AD3589F460023C54A1370C54C2370A5
:1002E00009A90E20C44B98472378002B6FD109AB86
:1002F0005878C24B5B7883422AD009AC2379E278E4
:10030000A178A579019564790094BD4CA04709AB0B
:10031000D879BA4BDB79834239D009A98B7A4A7AEA
:10032000097AB84CA04709ABD87AB44BDB7A834240
:1003300040D009A98B7B4A7B097BB34CA0470123A2
:10034000AE4809A95A5C1A5401330F2BFAD141E087
:1003500009AB9A78A94B9B789A42CED109ABDA784F
:10036000A64BDB789A42C8D109AB1A79A34B1B790B
:100370009A42C2D109AB5A79A04B5B799A42BCD15F
:1003800009AB9A799D4B9B799A42B6D1BFE709ABED
:100390001A7A9A4B1B7A9A42BFD109AB5A7A974B79
:1003A0005B7A9A42B9D109AB9A7A944B9B7A9A427A
:1003B000B3D1B8E709AB1A7B904B1B7B9A42B8D1FB
:1003C00009AB5A7B8D4B5B7B9A42B2D1B7E70022D7
:1003D000874B1A7055228D4B1A7071E10023844AA5
:1003E0001370844A13700020894DA84704AC207014
:1003F0000120A84760700220A847A0700320A847EA
:10040000E070042221008348834B984758E1002480
:10041000774B1C70774B1C7009AD29000120764B7F
:1004200098477E4B1C706B78672B07D0732B09D0D5
:1004300000236B4A13706B4A137041E10122784B21
:100440001A703DE10022764B1A7039E10023684AA8
:100450001370684C237009A90420674B98472378D0
:10046000002B03D05522694B1A7029E109A80379A2
:10047000C278817840786B4CA047F3E700235C4A50
:1004800013705C4C237009A902205B4B98472378BA
:10049000002B03D055225D4B1A7011E109AB9978FE
:1004A0005878614B9847F5E70023514A1370514C37
:1004B000237009A90220504B98472378002B03D0C2
:1004C0005522524B1A70FBE009AB99785878574B7C
:1004D0009847F5E70024464B1C70464D2C7009A93F
:1004E0000120454B98470F236B441C702B78002B41
:1004F00000D0E5E009AB5B78322B1CD0DAB2322AAF
:100500000DD9332B21D0342B29D10320404B9847D0
:1005100004A9087001223F483F4B9847D0E0312B97
:100520001DD100203A4B984704A908700122394890
:10053000394B9847C4E00120354B984704A908700F
:1005400001223448344B9847BAE00220304B984798
:1005500004A9087001222F482F4B9847B0E00023D0
:100560001F4A13701F4A1370AAE00023204A137019
:10057000204C237009A901201F4B984706202C4BC3
:1005800098472378002B00D09AE009AB5B78322B98
:100590001CD0DAB2322A0DD9332B4BD0342B53D1A5
:1005A00003201B4B984704A90870012219481A4BD5
:1005B000984785E0312B47D10020154B984704A977
:1005C000087001221348144B984779E00120104B22
:1005D000984704A9087001220E480F4B98476FE016
:1005E000F1000020F500002070020020983C00007F
:1005F000F4000020F30000204902000094000020D5
:1006000071110000851400007D1000009100002091
:100610004D12000000010020DD220000F00000204B
:1006200090000020BD110000D910000085150000C9
:10063000E107000002204B4B984704A908700122F3
:1006400049484A4B98473BE00023494A1370494ABE
:10065000137035E00024484B1C70484B1C70484B0D
:100660009847484B9847484B1C705C709C70DC70F6
:100670001C715C71DC721C735C739C73434B1C704B
:100680005522434B1A7000243B4B1C703B4B1C7093
:1006900009AD290001203F4B98473F4B1C706B78F8
:1006A000672B07D0732B35D00023314A1370314AA2
:1006B000137002E00122394B1A705522344B1A7024
:1006C0002B4B1B782B4A1278DBB2934207D0284B76
:1006D0001B78284B1B78294B1B78002B04D0002358
:1006E000234A1370234A13702C4B1B78002B06D01F
:1006F000274B1B78552B17D00022254B1A70234B04
:100700001B78002B04D0244B1B78DBB2022B12D8B1
:100710000FB030BD0022214B1A70CEE70023144ADF
:100720001370144A1370CBE704A90B7001220E4812
:100730000E4B9847E0E70022174B1A700020094D36
:10074000A84704AC20700120A84760700220A84789
:10075000A0700320A847E070042221000248034B48
:100760009847D5E74D12000000010020DD2200006F
:10077000F1000020F5000020F4000020F30000202C
:100780003911000011120000940000209000002098
:100790009100002049020000F0000020920000209B
:1007A00070B50020084B98470500084CFA218900D5
:1007B000A047074B186007492800A047064B186060
:1007C0000522064B1A6070BDF533000005380000A5
:1007D0000000002040420F000400002010E000E074
:1007E00030B5084B1C68084A0025802149020138B1
:1007F00007D3002CFBD05460956013680B42FCD0EB
:10080000F5E730BD0000002010E000E010B5002248
:10081000002302704270002142800171037602625F
:10082000C26182600373C0246401C4810374437491
:100830008374C37403752A24035543758375063C7A
:100840000355C2840285C1752B23C1540133C154A1
:1008500010BD0000F0B5D6464F464646C0B596B02E
:10086000070016000160C64A106A80235B0003433C
:1008700013620B780520DB0705D516B01CBC90462B
:100880009946A246F0BD0B7817309B07F5D47378D4
:100890003B71002B04D1BB4A136C04210B4313643E
:1008A0000023BB60FB603B61BB76FB763B833B7701
:1008B000B54B1F602A23F35C002B05D1337D002B41
:1008C00002D101337B7701E000237B773B689846B8
:1008D00033786A46137069461320AC4B984713204F
:1008E000AB4B98472C23F25C002A54D0013BF55CBB
:1008F000337BEB18DBB2D118C9B28B4221D252192B
:10090000D3B29946A34B9A4603E00135EDB24D456B
:1009100017D00F242C40337BE41850229E4902A8A4
:10092000D047092CF1D8A40002ABE05801A900235C
:100930004B70CB708B7001330B70C0B2974B9847E4
:10094000E3E7F4895022944902A8924B9847092C76
:1009500013D9737D9B00DBB242461370B37DDB017C
:1009600072781343DBB2424653703379342B00D98B
:100970007BE19B008A4AD3589F46A40002ABE05813
:1009800001A900234B70CB708B7001330B70C0B288
:10099000824B9847DDE7347B50227F4902A87D4B8C
:1009A0009847092C15D9F48950227B4902A8794B24
:1009B0009847092CCDD8A40002ABE05801A9002328
:1009C0004B70CB708B7001330B70C0B2734B984778
:1009D000BFE7A40002ABE05801A900234B70CB7025
:1009E0008B7001330B70C0B26C4B9847DBE704236C
:1009F000102402211AE0717C337C102416E00623B7
:100A00001024012112E00823102400210EE000230D
:100A1000302400210AE000232024002106E00023E6
:100A20000024002102E00223102401210901702288
:100A30000A40134342469370F37D17203F2B00D9A1
:100A40001BE7D3703A68537E5BB2002BFBDBF37C71
:100A5000728813432422B25CD2001343327D920089
:100A60001343B27C52001343234342469380337EA8
:100A7000002B20D0102C00D1D9E000D898E0202CF9
:100A800000D1B6E0302C16D1F27C002A0AD0F269EF
:100A900080321720FF2A00D9EFE6326A8032FF2A1F
:100AA00000D9EAE61720F269FF2A00DDE5E6326A9E
:100AB000FF2A00DDE1E639684A7E52B2002AFBDBFC
:100AC000424613723A68537E5BB2002BFBDBB38B5A
:100AD000424693833A68537E5BB2002BFBDB338C38
:100AE000424613842C23F35C002B05D0013BDBB280
:100AF00017200F2B00D9C0E62B22B15C17200F293D
:100B000000D9BAE63868427E52B2002AFBDBF2898D
:100B1000307B0243B068024309050A431B041343B8
:100B2000424613612A23F35C13750F239375153323
:100B3000F35C002B12D0F38C1A4A1720934200D991
:100B40009BE642469384328D80231B01D3181549BE
:100B50009BB28B4200D990E64346DA84124B1B6865
:100B60005B01E022D2001340104A5168490112682B
:100B7000D20E0A43D2B213434246138500207CE6CC
:100B80000004004000080040380100200D3500003E
:100B900081340000A13B0000183E00000536000033
:100BA000443D0000FF0F00002460800020608000B2
:100BB000002C00D07FE7F27C002A0FD0F269802160
:100BC00009018C4662442A4917208A4200D954E61A
:100BD000326A624426498A4200D94EE6244A1720E6
:100BE000F169914200DD48E6316A914200DD44E658
:100BF00061E7F27C002A0FD0F269802189008C46DF
:100C000062441C4917208A4200D936E6326A62449F
:100C100018498A4200D930E6164A1720F1699142F4
:100C200000DD2AE6316A914200DD26E643E7F27CE8
:100C3000002A0FD0F269802109028C4662440E49D5
:100C400017208A4200D918E6326A62440A498A4269
:100C500000D912E6084A1720F169914200DD0CE63E
:100C6000316A914200DD08E625E7172005E6C04617
:100C7000FF0F0000FF030000FFFF000070B52E4BC8
:100C80001C6823681D7EEDB2EA0705D5E27ED20717
:100C900002D5A27ED20716D46B0708D5042322689A
:100CA0001376E37E9B0702D5A37E9B073CD4AB075C
:100CB00008D5022322681376E37E5B0702D5A37E64
:100CC0005B0735D470BD01221A762268537E5BB271
:100CD000002BFBDB61698B1C6361538B9BB20B8028
:100CE000238B013B9BB22383002B11D0637F002B0E
:100CF000D2D02268537E5BB2002BFBDB137B022138
:100D00000B4313732268537E5BB2002BFBDBC3E7FC
:100D1000237F052BC0D100232377013322689375ED
:100D20002000A3689847B7E72000E3689847BEE72C
:100D3000236920009847C5E738010020044A13784A
:100D400002210B43137053785BB2002BFBDB70471F
:100D50000018004000B583B0124A936940210B434C
:100D6000936101A900230B7005200F4B98470520C4
:100D70000E4B98470E4A137801210B43137053789A
:100D80005BB2002BFBDB0B4B19004031002204C38C
:100D90009942FCD11022084B1A60084B984703B0C7
:100DA00000BDC046000400400D3500008134000045
:100DB000001800403C01002000E100E03D0D000073
:100DC000F0B5DE4657464E464546E0B587B080460C
:100DD000049116001F000022002300218B463F24AF
:100DE00001202100009601975C4603944446059437
:100DF00013E02024641A0500E540A84614E0009C96
:100E0000019D121BAB415C464D462C43A346039CFF
:100E100045462C430394013925D3202464420C1900
:100E2000E7D40500A540A84604008C40A1469218CE
:100E30005B4114001D00059E4F463E40B446049E93
:100E400047463E40B246664657463E4303D00600FC
:100E5000264332002B00009C019D9D42DBD8CED161
:100E60009442D8D8CBE7039B5846190007B03CBC46
:100E700090469946A246AB46F0BD10B549084023BE
:100E80000024814202D2180010BD1C00091A631C04
:100E90009BB28842F9D94023FF2CF4D81480002358
:100EA000F1E70000F0B583B00F00160008AA117832
:100EB00004004C434022BC4202D9100003B0F0BDF4
:100EC000002B14D1020008000021194CA04701009A
:100ED0003A0000230020174CA04700220123121AD9
:100EE0008B41120C1B041A4332800022E5E70022DA
:100EF000012BF9D10A00002300210D4CA04702006C
:100F00000B0000920193380000210A4CA047050015
:100F100080239B0140229842CFD8790FF800009A95
:100F2000019BA047EA00821AD2B252032A43DBE7B0
:100F3000F13A0000C10D000010B582B004000E4B64
:100F40001B78002B07D0002905D10B4B5B7883421F
:100F500010D01D200CE001A90C700D20074B984704
:100F60000D20074B9847044B5C7001221A7000203B
:100F700002B010BD0020FBE7A80000200D350000E6
:100F800081340000204B984217D0204B984224D047
:100F90001F4B984201D000207047012907D000293B
:100FA0002BD0022905D0032905D00020F4E71948E9
:100FB000F2E71948F0E71948EEE7012907D00029C0
:100FC0001DD0022905D0032905D00020E4E71448EC
:100FD000E2E71448E0E71448DEE7012907D00029DA
:100FE0000FD0022905D0032905D00020D4E70F48EF
:100FF000D2E70F48D0E70F48CEE70F48CCE70F48BD
:10100000CAE70F48C8E7C046000C00420010004283
:10101000000800420300050003000600030007006B
:101020000200170003001E0003001F00030017004A
:101030000300100003001900030004000200160062
:101040000300160030B585B001AA0B4B32CB32C27B
:101050000300019A82420CD0029A824207D00020FB
:10106000039A9A4201D005B030BD023002E001205F
:1010700000E00020C0B2F6E7683E000010B5FF288F
:1010800017D0FF2917D0FF2A17D0FF2B17D00D4CF0
:10109000C0432070C9436170D243A270E3700A4B11
:1010A00098470A4B98470A4B98470122094B1A70F8
:1010B00010BD0138E5E70139E5E7013AE5E7013B15
:1010C000E5E7C046140200202D2900007929000020
:1010D000E1290000C600002010B5FF2909D0322800
:1010E00018D008D9332819D0342809D10D4BD9701C
:1010F00006E00139F3E7312802D1C943094B1970E1
:10110000094B9847094B9847094B98470122094BCF
:101110001A7010BDC943034B5970F1E7C943014B25
:101120009970EDE7140200202D29000079290000B4
:10113000E1290000C600002010B5084BFF221A70FC
:101140005A709A700022DA70054B9847054B984701
:10115000054B98470122054B1A7010BD1402002060
:101160002D29000079290000E1290000C600002097
:1011700070B504AC267805AC25780B4CC0432070C4
:10118000C9436170D243A270DB43E370F64326711A
:10119000ED436571054B9847054B9847054B9847BC
:1011A0000122054B1A7070BD68020020CD2F00008F
:1011B000F92D0000ED2C0000C900002010B53128E9
:1011C0000BD0322811D00D4B98470D4B98470D4B43
:1011D000984701220C4B1A7010BD0C48C94301708E
:1011E000D2434270DB438370EDE70848C943C170C6
:1011F000DB430371D2434271E5E7C046CD2F0000C7
:10120000F92D0000ED2C0000C9000020680200202C
:1012100010B5094BFF221A705A709A70DA701A7161
:101220005A71064B9847064B9847064B9847012240
:10123000054B1A7010BDC04668020020CD2F00007B
:10124000F92D0000ED2C0000C900002010B5034B63
:10125000185C034B9847C0B210BDC046743E0000F6
:10126000ED12000010B58CB06846194B984702206B
:10127000184B9847184B186003236A465370E023B5
:10128000DB00538006231373C0235B01D38130231B
:1012900013712F3B9374114C11492000114B984747
:1012A0002268537E5BB2002BFBDB802109020E4BD0
:1012B00019600F2393751376137802210B43137073
:1012C000064B1A68537E5BB2002BFBDB0CB010BDE3
:1012D0000D0800008D3B0000AC0000207C010020C8
:1012E000002000425508000000E100E030B52D4B21
:1012F00019684B7E5BB2002BFBDB0B691F2293430B
:10130000184308614B7E5BB2002BFBDB4B7E5BB26C
:10131000002BFBDB0B7B022213430B734B7E5BB278
:10132000002BFBDB01200425022401E010420AD13E
:101330000B7EDBB202001A401D4200D022431C4249
:10134000F4D02A43F2E70A7ED2B2012313405007B9
:1013500001D502200343920701D504221343DB0782
:1013600003D4114B1B68188830BD4B7E5BB2002B39
:10137000FBDB0D4B1B684A8B1A800A4B1968012353
:101380000B760A7ED2B21340500701D502200343E8
:10139000920701D5042213435B07E2D502230B76A3
:1013A000DFE7C0467C010020AC00002010B5014BF7
:1013B000984710BD65120000054B1A68022193681A
:1013C0001942FCD1136802210B4313607047C046D9
:1013D0009C01002030B5ABB01D4D01AC29002000B0
:1013E0001C4B98470223E3721B4A6260237600235A
:1013F00023756375A375E375FA22D200E2610133A8
:10140000982163549439A1651449A1671449216254
:10141000992163549439E1651249E167FA21090180
:1014200061629A216354943921660F487A31605081
:10143000A2629B22A354063363660C4A7D33E250BA
:10144000220029000A480B4B98472BB030BDC046FC
:1014500000140042B1160000409C0000050004008A
:10146000B80B000005000500050006000500070098
:101470009C010020ED17000010B5014B984710BDEE
:10148000D5130000F8B507000E0015001C00364B00
:101490001B78834210D0FF284ED0DC200001784317
:1014A000FE21324B9847A023DB00C21800213048B0
:1014B000304B98472C4B1F702F4B1B78B34210D0EA
:1014C000FF2E3FD0DC2000017043FE21274B9847C0
:1014D000A023DB00C21801212548264B9847264B44
:1014E0001E70264B1B78AB4210D0FF2D30D0DC2075
:1014F00000016843FE211D4B9847A023DB00C21862
:1015000002211B481B4B98471C4B1D701C4B1B7822
:10151000A34210D0FF2C21D0DC2000016043FE212B
:10152000124B9847A023DB00C21803211048114B2F
:101530009847134B1C70F8BD002200210C480D4B3E
:101540009847B7E70022012109480A4B9847C6E7A8
:10155000002202210648074B9847D5E700220321C5
:101560000348044B9847E4E7B00000201939000015
:101570009C010020751B0000B1000020B20000207B
:10158000B300002010B532282CD013D933283FD017
:10159000342820D1FF2951D0DC2000014843FE210E
:1015A000294B9847A023DB00C21803212748284B6A
:1015B000984710E031280ED1FF290DD0DC20000122
:1015C0004843FE21204B9847A023DB00C21800218E
:1015D0001E481F4B984710BD002200211B481C4B82
:1015E0009847F8E7FF290DD0DC2000014843FE2191
:1015F000154B9847A023DB00C21801211348144B58
:101600009847E8E7002201211048114B9847E2E78C
:10161000FF290DD0DC2000014843FE210A4B9847EA
:10162000A023DB00C21802210848094B9847D2E7E3
:10163000002202210548064B9847CCE700220321EF
:101640000248034B9847C6E7193900009C01002067
:10165000751B00000020704730B5040017200329D7
:1016600000D930BD114DAA42FBD82068002B10D004
:10167000802464028C40036B1C42FCD18024240330
:101680008C4083681C42FCD11C3189000A50002028
:10169000E7E7802464008C4083681C42FCD1103151
:1016A000890041184A600020DBE7C046FFFFFF00C9
:1016B000002303604C4A42608372C3720373437217
:1016C0000372C3610362436283620375437583756A
:1016D000C37503764376037443748374C3742C22F6
:1016E00083540132835401328354013283540132D2
:1016F00083540132835401328354013283540132C2
:1017000083540132835401328354013283540132B1
:1017100083540132835401328354013283540132A1
:101720008354013283540132835401328354013291
:101730008354013283540132835401328354013281
:101740008354013283540132835401328354013271
:101750008354013283540132835401328354013261
:101760008354013283540132835401328354013251
:101770008354013283540132835401328354013241
:1017800083540132835401328354013283544132F1
:1017900083548365836701328354C365C367013211
:1017A000835403661A3A83501B3283544366173AB4
:1017B0008350183283548366143A8350153283540D
:1017C000C366113A83501232835403670E3A835032
:1017D0000F32835443670B3A835001210C328154FA
:1017E000013283547047C046FFFFFF00F0B5DE466C
:1017F00057464E464546E0B58DB006000C00150034
:101800000800CD4B98470300CC490A6A20200243C8
:101810000A6222680438920706D50DB03CBC904697
:101820009946A246AB46F0BD226801271740F4D185
:10183000C34A053829689142EFD869689142ECD8CB
:10184000E969914200D98BE1296A914200D989E185
:10185000696A914200D987E1A96A914200D985E17C
:101860002A7C013A50425041020601926A7C012AC8
:1018700031D0AA7C012A34D0EA7C012A37D0A122B7
:10188000AA5C002A04D0802212010199114301911F
:101890002A7A511E8A41920003926A7A012A2CD038
:1018A0003522AA5C032A00D962E12C21695C0F2948
:1018B00000D95DE1287B0490E87A05902D208246CE
:1018C000AA4400200297844606960E00A04654467D
:1018D000A946079347E080229204019911430191A0
:1018E000C7E78022D204019911430191C4E7802205
:1018F0001205019911430191C1E703991143039125
:10190000CEE79202C0252D012A4032430D790326ED
:101910002E40324355462A434E79760160253540A4
:101920002A438D792D02C026B60035402A43CD7951
:101930002D03E026F60135402A43104303431F439D
:1019400008AB624608201B189F50042A28D08A7CC6
:10195000032A00D90CE14E7A0A3404239A46D4446F
:101960000F2E00D904E13606F0231B051E4021008E
:1019700025782D04FF231B041D40AA466378802090
:10198000002B00D102988F780823002F00D1029BF2
:10199000CF78BB4610275D46002DB2D1029FB0E73D
:1019A000069E44464D46079B4846503049464131C5
:1019B000002280277F02BC460127B9460227FF3755
:1019C000BA461F001300A0463C0007E05746974068
:1019D0003B43013201300231082A0ED00778002F34
:1019E00002D0674697403B430F78002FF1D0022F7B
:1019F000ECD04F4697403B43EBE7220044469846E5
:101A000013006A7E120130211140287E0722024015
:101A100011430022802040020F0002E00132042A1C
:101A200007D0A918097D0029F8D0010091400F4383
:101A3000F4E7B946321D30003430002102C2904232
:101A4000FCD100227263B2639B003E4A9E50346018
:101A5000A023EA5C643BF25409A9AB7A0B70112015
:101A6000394B98471120394B98472F0098372E0053
:101A7000583678239A46AA44773B9B46230054461F
:101A80009A4603E001370436B44214D03B78002B69
:101A9000F8D008AB5A469A70002308AAD3701300F6
:101AA0002022B21812781A705A465A7030781900EB
:101AB000274B9847E6E75446049B1B03059A1202FE
:101AC0001343019A134323600422A3681A42FCD1F2
:101AD000FF2323710422A3681A42FCD16B461B7BAF
:101AE00063710A9BE3600B9B23614346A361194A20
:101AF000A3681342FCD14B46E3631022A3681A4249
:101B0000FCD12B686363144AA3681342FCD16B6851
:101B100023641C350021114802008A40A3681A4240
:101B2000FCD104CD0B0010339B00E3185A60013147
:101B30000429F1D1002070E6551600000004004091
:101B4000FFFFFF00DC0100200D35000081340000A4
:101B5000053600004000020080000400000108007B
:101B600017205AE6172058E6172056E6172054E6A5
:101B7000172052E610B53C23C35C014CA04710BDB2
:101B800059160000F0B5C64600B580000E4BC75888
:101B90003B68DE6ABB6B7A6B13401E4000240B4B24
:101BA000984602E00434302C0AD04346E5583542CA
:101BB000F8D03B195B68380098473B68DD62F1E775
:101BC00004BC9046F0BDC046DC010020783E000019
:101BD00010B50020014B984710BDC046851B000082
:101BE000064B984208D0064A0023904201D01800C4
:101BF00070470133DBB2FAE70023FBE7001800422D
:101C0000001C0042F0B585B004000D00160008006D
:101C1000824B9847070003AB12221A705A7002AB2E
:101C20002E321A8040325A800023A360E360236181
:101C30006361237663768200794BD4502560B37854
:101C4000082B06D023712B880520DB0705D505B0AE
:101C5000F0BD1720FA07FAD4F4E7EB7B1730DB0668
:101C6000F5D42B889B07F2D4337C002B00D07AE08C
:101C7000337F002B00D082E06A49086A7A0002AB09
:101C8000D35A03430B62B378082B00D187E0337833
:101C90006A46137003ABDF5D69463800624B9847B4
:101CA0003800624B98473189B3880B43B178B279D9
:101CB000114319437378002B02D080231B01194371
:101CC0002268D37B5BB2002BFBDB2980717B4B1E30
:101CD00099418900B37B002B01D00123194322686D
:101CE000D37B5BB2002BFBDBFF232B71002905D0DC
:101CF0002268D37B5BB2002BFBDB6971B17AF37A8C
:101D0000002B01D010231943337B002B01D020235B
:101D100019432268D37B5BB2002BFBDBA9712268DD
:101D2000D37B5BB2002BFBDB2379042B3FD0082B4A
:101D30005ED01720002B00D089E7D37B5BB2002B4D
:101D4000FBDB338D2B822268D37B5BB2002BFBDB6A
:101D5000738D2B832268D37B5BB2002BFBDBB38DAF
:101D60006B83002073E701A901238B700022CA70E6
:101D7000327E0A704B70307D2D4B984778E701A971
:101D800001238B700022CA702432B21812780A70B4
:101D90004B701F33F3181878254B98476CE7086A87
:101DA0007A1C520002ABD35A03430B626FE7D37B1A
:101DB0005BB2002BFBDB2823F35C2B742268D37B04
:101DC0005BB2002BFBDB2923F35C2B752268D37BF2
:101DD0005BB2002BFBDB2A23F35C2B762268D37BE0
:101DE0005BB2002BFBDB2B23F35C6B7600202EE732
:101DF000D37B5BB2002BFBDBB36A2B612268D37B06
:101E00005BB2002BFBDBF36AAB612268D37B5BB276
:101E1000002BFBDB336BEB61002018E7E11B0000BC
:101E2000E0010020000400400D3500008134000076
:101E3000053600000268D37B5BB2002BFBDB037925
:101E4000042B05D0082B0BD01720002B04D0704793
:101E5000C9B211740020FAE789B211820020F6E7B6
:101E600011610020F3E710B50468E37B5BB2002B3F
:101E7000FBDB0379042B05D0082B14D01720002B93
:101E800008D010BD17200129FBD8D2B261180A76FC
:101E90000020F6E717200129F3D892B20C3149004F
:101EA0000A530020EDE717200129EAD806318900FE
:101EB0000A510020E5E7931C9B001950022A09D023
:101EC000032A0CD0012393401A00037E13430376A8
:101ED00000207047037E102213430376F8E7037E49
:101EE000202213430376F3E770B58000164BC458E5
:101EF00023689D7B227E637E13401D40EB0706D442
:101F0000AB070BD4EB0610D4AB0615D470BD200084
:101F1000A3689847012322689373F1E72000E368E0
:101F20009847022322689373ECE7200023699847BF
:101F3000102322689373E7E72000636998472368BA
:101F400020229A73E2E7C046E001002010B500208D
:101F5000014B984710BDC046E91E000010B5012096
:101F6000014B984710BDC046E91E0000F0B5DE46A3
:101F700057464E464546E0B591B005000C001600A8
:101F800029600800BC4B9847020023680520DB0746
:101F900006D511B03CBC90469946A246AB46F0BD72
:101FA000236817309B07F4D4B449086A971C0123AF
:101FB000BB4003430B620FA92D27F35D0B700E325C
:101FC000D3B202931800AE4B98470298AD4B984796
:101FD000F05D0021AC4B9847F37A6B712423F35CDE
:101FE000AB712523F35CEB71F37E2B72337F6B7245
:101FF0002B6898461800A04B98470E3000220E23FD
:1020000006A98C4663441A80328A02928023DB013F
:102010009A4200D19EE00FD9C023DB01029A9A4276
:1020200000D192E080231B029A4200D01FE10323DB
:1020300006930023079308E080239B019A4200D077
:1020400015E1102306930F3B079333680593F3685C
:10205000039373690493337E9B462623F35C9A466D
:1020600073689946002B00D1A0E080235B05994559
:1020700000D184E0737E002B02D0B37E424693737E
:102080002A68029FD369002BFCD10E3306AA94461E
:1020900063441B8842469381059B039A1343049A29
:1020A00013434A4613431F435B461B021F435346D9
:1020B0005B071F432723F35C002B01D104331F432D
:1020C000737E9B02327F52021343727F12021343CC
:1020D0002422B25C520413432522B25C120413433F
:1020E000B17AF27A114319433389FF2B00D181E091
:1020F00080225204174319432C23F35C002B03D195
:10210000624B9B789B0701D580231F432A68D369C4
:10211000002BFCD1434659602A68D369002BFCD1BF
:1021200043461F600EAB80221A7000225A70DA708C
:102130009A70336B0A93736B0B93B36B0C93F36BC3
:1021400002930D9300270AAE63E008230693073B32
:1021500007937AE733680593F368039373690493ED
:10216000337E9B462623F35C9A4673689946002B80
:1021700018D080235B05994501D0002025E0272356
:10218000F35C002B00D075E7336A1F00C0B2404BF0
:10219000984701000E2206AB9C46624438003D4B36
:1021A000984712E008230693002307932723F35C44
:1021B000002B0ED0069B0093079B0E2206A98C468F
:1021C0006244B16A306A344FB847002800D0E0E674
:1021D00050E7336A1F00C0B22D4B98470100069BA1
:1021E0000093079B0E2206A88446624438002A4FBB
:1021F000B847EAE7F37E002B00D17DE78023DB04BC
:102200001F4379E72000254B984707E00137042F4B
:102210000DD0F9B2BB0098590028F3D0431CF5D07B
:102220000EA90870000CC0B21D4B9847EEE70023C2
:10223000EB602B616B61AB61EB612B62AB626B623C
:102240000022EB85AB853033EA540133EA54013385
:10225000EA540133EA542868074B984704001149AF
:10226000114B9847A400114BE550002091E6102334
:10227000069300230793E8E64510000000040040A1
:102280000D35000081340000390F000000200041AE
:10229000293500007B0E0000A50E0000850F000010
:1022A000053600002524000079250000E801002003
:1022B000C2791C23002A01D118007047C28D92B246
:1022C000173B002AF8D10368DA69002AFCD1198586
:1022D00002211A7E0A42FCD00023EDE7F0B5CE467B
:1022E000474680B583B0050001911720002A04D12C
:1022F00003B00CBC90469946F0BDEB790530002B3D
:10230000F6D02C68E369002BFCD1013A93B29946D0
:10231000002601271F4B984611E0731C9BB2019ABF
:10232000915D6A79012A17D089B21E0028001A4BE4
:1023300098474B46013B9BB29946434513D0237EB9
:102340003B42EAD1134B227E3A42E6D1012B19D00F
:10235000013B002BF7D1E0E70236B6B2019AD35C1D
:102360001B021943E2E7237E9B070DD4094B022190
:10237000227E0A420AD1012B0AD0013B002BF7D161
:102380000020B5E71220B3E70020B1E70020AFE757
:102390001220ADE7FFFF0000B1220000F8B50400F5
:1023A0000D00160007680F4B9847A38D9BB2002BBA
:1023B00003D00D4B98470520F8BDA6850A4B9847DA
:1023C000656205223223E2542E3BBB75237A002B33
:1023D00001D02023BB75637A0020002BECD00823AA
:1023E000BB75E9E75930000099300000931C9B0051
:1023F000C31859603021012393401A00435C1343F2
:102400004354704710B51723002A01D1180010BD9E
:1024100084790533002CF9D0014B98470300F5E788
:102420009D230000F8B58000514BC6583468E3691D
:10243000002BFCD1237EA57D1D403023F35C31228F
:10244000B75C1F40EB0722D5F38D9BB2002B1CD04D
:10245000B26A1378DBB2511CB162717901290ED0D6
:102460009BB2DB05DB0D2385F38D013B9BB2F3852E
:10247000002B0CD1013323750133A37507E051788C
:1024800009020B430232B262EBE701232375AB076B
:1024900006D50223237500223133F254FB0728D4DA
:1024A0006B0710D5638BDBB21A0726D43F2213408B
:1024B000002B4AD09A0723D51A223223F254303BFC
:1024C00063837B073DD4EB0604D510232375237665
:1024D000FB0640D4AB0604D52023237523763B07A7
:1024E0003DD42B0704D5082323752376BB063AD4A5
:1024F000F8BD3000F3689847D2E737221340D7E79A
:102500005A0705D51E223223F2542E3B6383D8E7A7
:10251000DA0705D513223223F254313B6383D0E727
:10252000DA0605D542223223F254223B6383C8E700
:1025300020221A42C5D021323223F254123B638347
:10254000BFE7300073699847BDE7BB07BBD53000D4
:1025500033699847B7E73000F3699847BAE7300026
:10256000B3699847BDE7336A30009847C0E7C04673
:10257000E80100207047000030B50A4B1B78002BA3
:102580000CD1094C094D2560094B00221A60656089
:102590005A60A5609A600132024B1A708000024BAB
:1025A000C15030BDB4000020B800002075250000E7
:1025B000E801002010B582B001AC0923237001337B
:1025C00063700133A370024B9847205602B010BDD0
:1025D0004510000010B5024B1B680020984710BD45
:1025E000B800002010B5024B5B680120984710BD71
:1025F000B800002010B5024B9B680220984710BD20
:10260000B800002070B50022104B1A70002310494A
:102610001F25104E0D4C0AE00D4908E023780133C8
:10262000DBB223700F2B10D800211F2BF4D9280008
:1026300018400122824008691042EFD00A619B00D5
:102640009B59002BEAD09847E8E770BDF4010020C1
:10265000001800403C01002000B583B001AB80228F
:102660001A700A785A704A789A708A78DA70190063
:10267000014B984703B000BD05360000F0B5DE46BB
:1026800057464646C0B582B001904F4B1B78002B91
:1026900000D091E04D490B785A1CD2B20A704C49D7
:1026A000C95CC8090023002804D14B09DB01494853
:1026B000844663441F200840012181405961464BF4
:1026C0001E78464B1B78013B98469E426EDA444882
:1026D000815D444B19700136F6B23F4B1E703300DA
:1026E000855D41480570A94235D1B04552DB1000E7
:1026F00037498B461F218A460127394CB61A0FE00D
:10270000554629403D008D404561E15C9319DBB29F
:102710000093E05C8446814212D1100098452CDB86
:10272000421CD2B25946095CC8098446002065465D
:10273000002DE5D14809C001264DAC466044DFE7D5
:102740000500284B1970244B684600781870264BFA
:102750001D701E4B1A70FF2D1ED0019C2000234BB4
:102760009847214B1A7800212000214B984702B04E
:102770001CBC90469A46A346F0BD6546194B19709D
:10278000154B684600781870174B19700F4B1A706C
:102790006146E0E70D00DEE7019C2000134B9847FF
:1027A000002200212000124B9847E0E70022002180
:1027B00001980F4B9847DAE70022034B1A7000216B
:1027C00001980B4B9847D2E7090000202102002016
:1027D00024020020004400412002002008000020C4
:1027E0001C020020C5000020C4000020351E00008F
:1027F000671E000010B58EB001AA002300211370DF
:1028000093711381002050709172D1721173917382
:10281000517311745361936111771362536213857D
:1028200053859385C023DB00938004239370FF219D
:102830002533D154074C08492000084B984722689B
:10284000D37B5BB2002BFBDB138802210B4313808D
:102850000EB010BDF8010020001C0042051C000055
:1028600010B5012202490348034B984710BDC046EA
:10287000000300C0004400413536000030B583B08D
:1028800001AC012363700022A270237021001F207D
:10289000084DA84721000820A84721000920A84783
:1028A00021001E20A847044B9847044A044B9A6114
:1028B00003B030BD5926000061280000000300C0AD
:1028C00000440041F8B5CE46474680B5134C206819
:1028D000134B99469847134B98461B5C1F26334071
:1028E00001252A009A40104F3A60637E012213436B
:1028F000637623685D731800C84743461B5C1E401F
:10290000B5403D60637E1022134363762368102236
:102910005A730CBC90469946F8BDC046F801002099
:10292000E11B0000A83E000000E100E0044B1F2274
:102930001A70173A5A7001329A701532DA7070476D
:1029400018020020034BFF221A705A709A7000225E
:10295000DA70704714020020054B064A117819708E
:102960005178597091789970D278DA707047C04672
:102970002802002014020020F0B5CE4600B5154B09
:10298000984703239946144F3E00144D17E0013336
:10299000DBB21A0063450BDAB85C511C7C5CA042C8
:1029A000F5D9B4547054A85C6C5CAC546854EEE730
:1029B00001235B429C46E1444B46002B06D0CC46AB
:1029C0000022002349460029E6DCF1E704BC9146D9
:1029D000F0BDC0465929000028020020180200203E
:1029E000F0B500220D4B1A70002300260C4D0D4F40
:1029F0000D4C0E4805E0F954C15CE1540133042B41
:102A000006D0E95CFF29F6D00132D2B20126F2E706
:102A1000002E00D1F0BD014B1A70FBE7080000202A
:102A2000280200201C02002024020020180200209E
:102A300070B50400244A13780133DBB213702349C4
:102A40000B780133DBB20B701378DBB20A2B05D99C
:102A500001221F4B1A7000221B4B1A701D4A1E4B7D
:102A60009A611E4B1B78002B10D100231C4A137057
:102A70001C4A13701C4B1A78FF2A20D11B4B1021C3
:102A80001A6811735A7E8A435A7670BD174D2868AA
:102A9000174B9847174B1B5C1F221A40012393408A
:102AA000154A13606B7E102213436B762B6810223D
:102AB0005A73124B98470022084B1A70D5E7002131
:102AC00020000F4B9847E0E7F4000020F0000020C2
:102AD000F3000020000300C000440041C6000020B5
:102AE00020020020210200201C020020F80100200A
:102AF000E11B0000A83E000000E100E0E129000029
:102B0000671E000010B5044B9847044B9847044BD0
:102B10009847044B984710BD2D2900004529000017
:102B200079290000E129000070B5054D0022054912
:102B30002800054CA047022204492800A04770BD88
:102B4000F8010020312A0000B71E00007D26000099
:102B500010B5044B9847044B9847044B9847044BD7
:102B6000984710BDF52700007D280000052B0000C8
:102B7000292B0000F0B5DE4657464646C0B582B068
:102B800001904F4B1B78002B00D091E04D490B7802
:102B90005A1CD2B20A704C49C95CC80900230028EB
:102BA00004D14B09DB014948844663441F20084097
:102BB000012181409961464B1E78464B1B78013BB1
:102BC00098469E426EDA4448815D444B1970013646
:102BD000F6B23F4B1E703300855D41480570A94237
:102BE00035D1B04552DB100037498B461F218A464C
:102BF0000127394CB61A0FE0554629403D008D405B
:102C00008561E15C9319DBB20093E05C844681420C
:102C100012D1100098452CDB421CD2B25946095CF7
:102C2000C809844600206546002DE5D14809C00149
:102C3000264DAC466044DFE70500284B1970244B55
:102C4000684600781870264B1D701E4B1A70FF2DB9
:102C50001ED0019C2000234B9847214B1A7800215D
:102C60002000214B984702B01CBC90469A46A346D0
:102C7000F0BD6546194B1970154B68460078187001
:102C8000174B19700F4B1A706146E0E70D00DEE735
:102C9000019C2000134B9847002200212000124B7A
:102CA0009847E0E70022002101980F4B9847DAE7A8
:102CB0000022034B1A70002101980B4B9847D2E772
:102CC0000B0000205E02002048020020004400416A
:102CD0006E0200200A00002058020020C8000020D8
:102CE000C7000020351E0000671E0000F0B500225E
:102CF0000D4B1A70002300260C4D0D4F0D4C0E4845
:102D000005E0F954C15CE1540133062B06D0E95CBF
:102D1000FF29F6D00132D2B20126F2E7002E00D10F
:102D2000F0BD014B1A70FBE70A00002050020020A2
:102D300058020020480200206002002070B5040004
:102D40001A4A1B4B5A611B4B1B78002B10D10023D6
:102D5000194A1370194A1370194B1A78FF2A20D197
:102D6000184B10211A6811735A7E8A435A7670BD27
:102D7000144D2868144B9847144B1B5C1F221A40B3
:102D800001239340124A13606B7E102213436B762B
:102D90002B6810225A730F4B98470022054B1A706C
:102DA000D5E7002120000C4B9847E0E70080C308DE
:102DB00000440041C90000206E0200205E02002095
:102DC000580200202C020020E11B0000AC3E000055
:102DD00000E100E0ED2C0000671E00000023044825
:102DE0000449CA5CC2540133062BFAD17047C0466D
:102DF0005002002068020020F0B5CE4600B5154B09
:102E0000984705239946144F3E00144D17E00133AF
:102E1000DBB21A0063450BDAB85C511C7C5CA04243
:102E2000F5D9B4547054A85C6C5CAC546854EEE7AB
:102E300001235B429C46E1444B46002B06D0CC4626
:102E40000022002349460029E6DCF1E704BC914654
:102E5000F0BDC046DD2D00005002002060020020C1
:102E600010B58EB001AA0023002113709371138155
:102E7000002050709172D17211739173517311745B
:102E80005361936111771362536213855385938560
:102E9000C023DB00938004239370FF212533D1549A
:102EA000074C08492000084B98472268D37B5BB247
:102EB000002BFBDB138802210B4313800EB010BDE7
:102EC0002C02002000180042051C000010B5012251
:102ED00002490348034B984710BDC0460080C30811
:102EE000004400413536000030B583B001AC012309
:102EF00063700022A270237021000F200B4DA847A1
:102F000021001020A84721001120A84721001620E9
:102F1000A84721001720A84721001B20A847044BE1
:102F20009847044A044B5A6103B030BD592600004B
:102F3000CD2E00000080C3080044004170B5054D4F
:102F4000002205492800054CA04702220449280018
:102F5000A04770BD2C0200203D2D0000B71E0000D0
:102F6000752B0000F8B5CE46474680B5134C206857
:102F7000134B99469847134B98461B5C1F263340CA
:102F800001252A009A40104F3A60637E01221343C4
:102F9000637623685D731800C84743461B5C1E4078
:102FA000B5403D60637E1022134363762368102290
:102FB0005A730CBC90469946F8BDC0462C020020BE
:102FC000E11B0000AC3E000000E100E0064B0F22D8
:102FD0001A7001325A7001329A700532DA70013279
:102FE0001A7104325A71704760020020044BFF22AC
:102FF0001A705A709A70DA701A715A717047C04616
:103000006802002010B5054B9847054B9847054BC3
:103010009847054B9847054B984710BDCD2F0000AA
:10302000ED2F0000DD2D0000F92D0000ED2C00003B
:1030300010B5044B9847044B9847044B9847044BF2
:10304000984710BD612E0000E92E000005300000F9
:103050003D2F0000704700000C4B1B68002B06D171
:10306000EFF31083002B07D00022094B1A70074A98
:10307000136801331360704772B6BFF35F8F00228D
:10308000044B1A700132024B1A70F0E7CC0000209A
:10309000D00000200C000020084B1A68013A1A608A
:1030A0001B68002B09D1064B1B78002B05D0012291
:1030B000044B1A70BFF35F8F62B67047CC000020DC
:1030C000D00000200C00002010B5082803D8800094
:1030D0001B4B1B589F46002030E01A4B18692DE00F
:1030E000194B1B6A9B059B0F1848D84026E0154BCF
:1030F000586923E0134B1B6800209B071ED512491B
:103100001022CB681A42FCD00E4B1B685B0701D41F
:103110000F4813E000200F4B98470A4B9B681B0495
:103120001B0C58430AE05023074AD35C00205B077E
:1031300004D5044BD86801E08020000210BDC046D1
:10314000B03E0000D40000200008004000127A00C9
:10315000006CDC022935000070B50C490B6A04785C
:10316000857840780122104080014026B343034314
:103170002A40D201802083431343032222401202BB
:103180000348034013430B6270BDC0460008004073
:10319000FFFCFFFF082803D88000254B1B589F46E3
:1031A000172044E0234A136A02210B4313620020D4
:1031B0003DE0204A936902210B439361002036E0F1
:1031C0001C4A138A02210B43138200202FE0194A64
:1031D000938A02210B439382002028E016490B6852
:1031E000022213430B60134B9A8419000E32CB68F2
:1031F0001A42FCD0104A91680E4BD96252689A620A
:1032000000229A8419001032CB681A42FCD00A4B73
:103210001B689BB2074A9384002008E005494422BA
:103220008B5C022003438B54002000E00020704799
:10323000D43E000000080040D400002030B585B026
:10324000C222D2001A4B9A601A4A53681E218B433D
:10325000536001236A4613700024174DE0B269469B
:10326000A8470134182CF9D103A800244470012583
:1032700085700470114B98470620114B9847114BED
:103280009847114B1C725C729C72DC7201956B4604
:103290005C7006236A4613701472547269460020EB
:1032A0000A4B984700200A4B984705B030BDC046EE
:1032B00000080040004000410D3500005931000079
:1032C00095310000D532000000040040F9320000C2
:1032D000B1330000064A936908210B439361012230
:1032E000044B1A7019000B781342FCD17047C0468A
:1032F00000040040000C004070B5060004000D788A
:103300002D0205434B78002B02D08023DB021D43A6
:103310004B7A002B02D080231B031D4348680128F1
:1033200010D9431E184234D1022830D9022300227A
:1033300001325B009842FBD8120232431400802312
:103340005B031D430B7A002B02D080239B031D439C
:10335000134A53785BB2002BFBDB124B9847124B9E
:103360001E700F4A53785BB2002BFBDB0C4B9C604A
:103370001A0053785BB2002BFBDB094A53688021AB
:1033800049020B401D435560084B984770BD002211
:10339000D2E70402344380239B021D43D2E7C04698
:1033A000000C004059300000080C0040993000002B
:1033B00010B504000B4A53785BB2002BFBDB0A4BC1
:1033C00098470A4B1C70074A53785BB2002BFBDB13
:1033D000044A516880235B020B435360044B9847B7
:1033E00010BDC046000C004059300000040C0040E5
:1033F0009930000070B504001A4A53785BB2002B74
:10340000FBDB194B9847194B1C70164A53785BB27B
:10341000002BFBDB134E7068C004C00E144B9847A2
:103420000500124B1C707668F602F60F114B1C70EB
:103430000C4A53785BB2002BFBDB0A4B9C682402DE
:10344000240C0D4B9847002E07D1012C07D92100E1
:1034500028000A4B9847050001E00134E5402800A8
:1034600070BDC046000C004059300000040C004004
:10347000C9300000080C00409930000005380000F9
:1034800010B50400064B9847064B1C70064A53883B
:103490008021C9010B435380044B984710BDC0469F
:1034A00059300000020C0040000C00409930000030
:1034B00010B504000F4B98470F4B1C700F4A5388F0
:1034C0001B05180F53880E490B40538053880D4934
:1034D0000B40538011008022D2014B881342FCD153
:1034E00006494A8803020648024013434B80064BB4
:1034F000984710BD59300000020C0040000C0040FD
:10350000FFF0FFFFFFBFFFFF9930000010B50C7800
:1035100024020443024B9847A4B2024B5C8010BDC6
:10352000B1340000000C004010B50400064B984771
:10353000064B1C70064B5C882405240F054B9847EE
:103540002000054B984710BD59300000020C004088
:10355000000C004099300000F533000030B5D378FE
:10356000002B35D11378802B29D01B0680246402D0
:10357000234354780225AC4306D19478002C20D103
:103580008024A402234341605478013C012C1CD9BF
:103590000D042D0CA024E4052C431C4384620D0C67
:1035A000D02424062C431C438462D478002C22D1DE
:1035B0005B031CD59378012B1ED0416117E00023DB
:1035C000D7E7C024E4022343DDE70D4C2340DFE7C7
:1035D00041600C04240CA023DB05234383620C0C04
:1035E000D0231B0623438362D378002B03D1537867
:1035F000013B012B02D930BD8161F8E78160FAE718
:10360000FFFFFBFF10B50A00C1090023002904D108
:103610004309DB0105498C4663441F2420400121F6
:1036200081401800024B984710BDC046004400413D
:103630005D350000F0B5C64600B5002301264024E4
:10364000A046A44609E0C51840352C7867463C439F
:10365000E4B22C700133202B0CD00C00DC4026424D
:10366000F8D0012AEFD0C418403425784746BD432E
:103670002570EFE704BC9046F0BD704710B5054BD0
:103680009847054B9847054B9847054B9847054B7E
:10369000984710BD3D320000553000007B360000D9
:1036A000550D00007B360000FEE7000010B5264AED
:1036B000264B9A4211D01A00254B9A420DD2254A28
:1036C00003339B1A9B0801339B0000221F481E49AD
:1036D0008C58845004329A42FAD11F4A1F4B9A42A6
:1036E0000AD2D3431D495B1803218B4304339B1833
:1036F000002102C29342FCD1194AFF21194B8B438E
:103700009360FD3990235B00174AD150174B9A7B89
:103710002E318A4320210A439A739A7B0C218A43D3
:1037200008210A439A739A7B03218A4302210A43A0
:103730009A730F4A536880210B4353600D4B98478F
:103740000D4B9847FEE7C046183F000000000020E0
:103750007400002004000020740000207403002086
:1037600000ED00E000000000007000410048004152
:1037700000400041453B0000A13700000300064A1D
:103780001268002A04D0044A1068C31813607047F6
:103790000249014A1160F6E7EC000020780700209A
:1037A00010B50C4B98470C4B98470C4B98470C4B5B
:1037B00098470C4B98470C4B98470C4B98470C4B31
:1037C00098470C4B98470C4B98470C4B98470C4C20
:1037D000A047FDE77D360000A1070000512B000047
:1037E00031300000AD1300007914000035020000F4
:1037F000B9130000652F0000C52800001102000069
:1038000099020000002243088B4274D303098B42C3
:103810005FD3030A8B4244D3030B8B4228D3030CA0
:103820008B420DD3FF22090212BA030C8B4202D342
:103830001212090265D0030B8B4219D300E0090A6A
:10384000C30B8B4201D3CB03C01A5241830B8B4273
:1038500001D38B03C01A5241430B8B4201D34B035C
:10386000C01A5241030B8B4201D30B03C01A5241C1
:10387000C30A8B4201D3CB02C01A5241830A8B4246
:1038800001D38B02C01A5241430A8B4201D34B022F
:10389000C01A5241030A8B4201D30B02C01A524193
:1038A000CDD2C3098B4201D3CB01C01A5241830947
:1038B0008B4201D38B01C01A524143098B4201D381
:1038C0004B01C01A524103098B4201D30B01C01AAC
:1038D0005241C3088B4201D3CB00C01A5241830826
:1038E0008B4201D38B00C01A524143088B4201D353
:1038F0004B00C01A5241411A00D2014652411046B3
:103900007047FFE701B5002000F0F0F802BDC046A7
:103910000029F7D076E7704703460B437FD4002297
:1039200043088B4274D303098B425FD3030A8B4253
:1039300044D3030B8B4228D3030C8B420DD3FF22BD
:10394000090212BA030C8B4202D31212090265D08B
:10395000030B8B4219D300E0090AC30B8B4201D33E
:10396000CB03C01A5241830B8B4201D38B03C01A85
:103970005241430B8B4201D34B03C01A5241030BFC
:103980008B4201D30B03C01A5241C30A8B4201D3AD
:10399000CB02C01A5241830A8B4201D38B02C01A58
:1039A0005241430A8B4201D34B02C01A5241030ACF
:1039B0008B4201D30B02C01A5241CDD2C3098B42B4
:1039C00001D3CB01C01A524183098B4201D38B0131
:1039D000C01A524143098B4201D34B01C01A5241D4
:1039E00003098B4201D30B01C01A5241C3088B4219
:1039F00001D3CB00C01A524183088B4201D38B0004
:103A0000C01A524143088B4201D34B00C01A5241A5
:103A1000411A00D201465241104670475DE0CA0F7C
:103A200000D04942031000D34042534000229C463C
:103A300003098B422DD3030A8B4212D3FC22890146
:103A400012BA030A8B420CD3890192118B4208D31C
:103A5000890192118B4204D389013AD0921100E07E
:103A60008909C3098B4201D3CB01C01A5241830992
:103A70008B4201D38B01C01A524143098B4201D3BF
:103A80004B01C01A524103098B4201D30B01C01AEA
:103A90005241C3088B4201D3CB00C01A5241830864
:103AA0008B4201D38B00C01A5241D9D243088B42BA
:103AB00001D34B00C01A5241411A00D2014663465D
:103AC00052415B10104601D34042002B00D54942C1
:103AD000704763465B1000D3404201B5002000F000
:103AE00005F802BD0029F8D016E770477047C046B8
:103AF000F0B5CE46474615042D0C2E0080B50704C0
:103B0000140C3F0C9946030C7E435D4367436343AB
:103B10007F19340CE4199C46A54203D980235B022B
:103B20009846C4444B46514343433604360C250C57
:103B300024046544A4195918491920000CBC904666
:103B40009946F0BD70B500260C4D0D4C641BA410B9
:103B5000A64209D1002600F0CFF90A4D0A4C641B99
:103B6000A410A64205D170BDB300EB5898470136AA
:103B7000EEE7B300EB5898470136F2E7043F000048
:103B8000043F0000043F0000083F000010B5034B55
:103B90000100186800F00EF810BDC04610000020AB
:103BA000002310B59A4200D110BDCC5CC45401333F
:103BB000F8E70000032370B5CD1C9D4308350600CF
:103BC0000C2D1ED20C25A9421DD8300000F062F841
:103BD000254A14682100002919D1244C2368002BA0
:103BE00003D1300000F044F820602900300000F0DC
:103BF0003FF8431C2CD10C233000336000F04BF80D
:103C000003E0002DDFDA0C233360002070BD0B6869
:103C10005B1B1AD40B2B03D90B60CC18256003E077
:103C20008C420ED163681360300000F034F820003D
:103C300007220B30231D9043C31AE7D05A42E250AB
:103C4000E4E74B6863600C00EEE70C004968C2E7EC
:103C50000323C41C9C43A042E0D0211A300000F092
:103C600007F8431CDAD1C6E7F8000020FC0000206A
:103C7000002370B5064C050008002360FFF77EFDA9
:103C8000431C03D12368002B00D02B6070BDC046BD
:103C900070030020704770477C0400001C07000080
:103CA000860600004C0400001C0700001C070000F2
:103CB00054060000A80400001C0700001C070000B8
:103CC0001C0700001C0700001C0700001C07000068
:103CD0001C0700001C0700001C0700001C07000058
:103CE0001C0700001C0700001C0700001C07000048
:103CF0000E0400001C0700001C0700001C07000049
:103D00001C0700001C0700001C0700001C07000027
:103D10001C0700001C0700001C0700001C07000017
:103D20001C0700001C0700001C0700001C07000007
:103D30001C070000D40400006A050000D602000041
:103D4000DC0300001E0A00006A0C00006A0C000080
:103D50006A0C00006A0C00006A0C00006A0C00008B
:103D60006A0C00006A0C00006A0C00006A0C00007B
:103D70006A0C00006A0C00006A0C00006A0C00006B
:103D80006A0C0000060A00006A0C00006A0C0000C1
:103D90006A0C00006A0C00006A0C00006A0C00004B
:103DA0006A0C00006A0C00006A0C00006A0C00003B
:103DB0006A0C00006A0C00006A0C00006A0C00002B
:103DC0006A0C0000160A00006A0C00006A0C000071
:103DD0006A0C00006A0C00006A0C00006A0C00000B
:103DE0006A0C00006A0C00006A0C00006A0C0000FB
:103DF0006A0C00006A0C00006A0C00006A0C0000EB
:103E00006A0C00000E0A0000260A0000EE090000FD
:103E1000FE090000F6090000020000000300000097
:103E2000040000000500000006000000070000007C
:103E30000E0000000F0000000A0000000B00000050
:103E4000FFFF0000FFFF0000FFFF0000FFFF00007A
:103E5000FFFF0000FFFF0000FFFF0000FFFF00006A
:103E6000FFFF0000FFFF000000080042000C0042BE
:103E700000100042060908000100000002000000D6
:103E800004000000080000000010000000200000F6
:103E9000004000000080000000000100000002005F
:103EA00000000400000008000D0E00000D0E0000D0
:103EB000DA300000D6300000D63000003831000083
:103EC00038310000EE300000E0300000F430000037
:103ED00026310000C0310000A0310000A0310000F8
:103EE0002C320000B2310000CE310000A4310000BD
:103EF000DC3100001C320000F8B5C046F8BC08BC3C
:103F00009E467047B5000000F8B5C046F8BC08BC36
:083F10009E4670478D00000081
:103F1800401F000008000000040106010100000025
:103F28001400002000000000000000000000000055
:103F38000000000000000000000000000000000079
:103F48000000000000000000000000000000000069
:103F58000000000000000000000000000000000059
:103F68000000000000000000000000000000000049
:103F78000000000000000000000000000000000039
:043F88000000000035
:04000003000036AD16
:00000001FF
